:020000040800F2
:10000000C006002089010008910100089301000842
:100010009501000897010008990100080000000000
:100020000000000000000000000000009B0100082C
:100030009D010008000000009F01000881060008E3
:10004000A3010008A3010008A3010008A301000800
:10005000A3010008A3010008A3010008A3010008F0
:10006000A3010008A3010008A3010008A3010008E0
:10007000A3010008A3010008A3010008A3010008D0
:10008000A3010008A3010008A3010008A3010008C0
:10009000A3010008A3010008A3010008A3010008B0
:1000A000A3010008A3010008A3010008A3010008A0
:1000B000A3010008A3010008A3010008A301000890
:1000C000A3010008A3010008A3010008A301000880
:1000D000A3010008810B0008A3010008A301000888
:1000E000A3010008A3010008A301000800F002F822
:1000F00000F03AF80AA090E8000C82448344AAF188
:100100000107DA4501D100F02FF8AFF2090EBAE885
:100110000F0013F0010F18BFFB1A43F0010318473B
:10012000A8110000C8110000103A24BF78C878C197
:10013000FAD8520724BF30C830C144BF04680C60ED
:10014000704700000023002400250026103A28BF35
:1001500078C1FBD8520728BF30C148BF0B60704739
:100160001FB51FBD10B510BD00F031F81146FFF7E7
:10017000F7FF00F059FF00F04FF803B4FFF7F2FF6C
:1001800003BC00F057F800000948804709480047C1
:10019000FEE7FEE7FEE7FEE7FEE7FEE7FEE7FEE737
:1001A000FEE7FEE704480549054A064B7047000094
:1001B00039070008ED000008C0000020C00600203C
:1001C000C0020020C002002070477047704775468B
:1001D00000F02CF8AE4605006946534620F00700B3
:1001E000854618B020B5FFF7DDFFBDE820404FF091
:1001F00000064FF000074FF000084FF0000B21F011
:100200000701AC46ACE8C009ACE8C009ACE8C009DD
:10021000ACE8C0098D46704710B50446AFF30080C6
:100220002046BDE81040FFF7A8BF00000048704717
:100230005C00002001491820ABBEFEE7260002004A
:10024000704700001CB5022012498870C020088049
:1002500018208DF8030002208DF802004FF4707012
:10026000ADF8000010208DF8070002208DF8060080
:100270000003ADF804006946074800F011F801A931
:10028000064800F00DF8BDF80410044800F093F89B
:100290001CBD000016000020000C014000100140B1
:1002A0002DE9F0410246002500260020002300240D
:1002B000002791F803C00CF00F0591F803C00CF073
:1002C000100CBCF1000F03D091F802C04CEA0505F8
:1002D00091F800C0BCF1000F31D0146800202BE071
:1002E0004FF0010C0CFA00F3B1F800C00CEA030661
:1002F0009E4220D183004FF00F0C0CFA03F7BC4351
:1003000005FA03FC4CEA040491F803C0BCF1280F81
:1003100006D14FF0010C0CFA00FCC2F814C00AE040
:1003200091F803C0BCF1480F05D14FF0010C0CFA55
:1003300000FCC2F810C0401C0828D1D31460B1F8EA
:1003400000C0BCF1FF0F34DD546800202EE000F146
:10035000080C4FF0010808FA0CF3B1F800C00CEAE1
:1003600003069E4221D183004FF00F0C0CFA03F7D5
:10037000BC4305FA03FC4CEA040491F803C0BCF149
:10038000280F05D100F1080C08FA0CF8C2F8148007
:1003900091F803C0BCF1480F07D100F1080C4FF0F1
:1003A000010808FA0CF8C2F81080401C0828CED3C7
:1003B0005460BDE8F081016170470AB1016100E05D
:1003C0004161704770B5002100230F22C47804B347
:1003D000154C246804F4E064C4F5E064210AC1F11A
:1003E0000403CA40447804FA03F18478144021439A
:1003F00009010E4C0678A155047804F01F0501246C
:10040000AC4005786D11AD0005F1E025C5F800415F
:1004100009E0047804F01F050124AC40044D06787F
:10042000761145F8264070BD0CED00E000E400E0D8
:1004300080E100E029B1064AD2690243044BDA6147
:1004400004E0034AD2698243014BDA61704700003D
:100450000010024029B1064A92690243044B9A6196
:1004600004E0034A92698243014B9A61704700009D
:100470000010024010B501210720FFF7DBFF01212A
:1004800044F21C00FFF7E6FF10BD000030B500216C
:100490000022002400232D4D6D6805F00C0121B1D0
:1004A000042905D0082923D105E0294D056022E063
:1004B000274D05601FE0254D6D6805F47012234D32
:1004C0006D6805F48034022505EB92421CB9214D7C
:1004D000554305600BE01D4D6D6805F400351DB1F9
:1004E0001C4D5543056002E0194D5543056002E07F
:1004F000174D056000BF00BF144D6D6805F0F00199
:100500000909154D6B5C0568DD4045600F4D6D6850
:1005100005F4E061090A104D6B5C4568DD408560BB
:100520000A4D6D6805F46051C90A0B4D6B5C456856
:10053000DD40C560054D6D6805F44041890B074DF0
:100540006B5CC568B5FBF3F5056130BD001002407A
:1005500000127A0000093D001A0000202A00002045
:1005600010B581200849087008480078487008488C
:100570000078887007480078C8708F2008710521BE
:10058000014800F0E5FA10BD0D0000200100002038
:10059000130000201400002010B500F001F810BD79
:1005A0000CB50020019000903348006840F4803082
:1005B0003149086000BF3048006800F40030009006
:1005C0000198401C0190009818B90198B0F5A06FEF
:1005D000F1D12948006800F4003010B101200090EA
:1005E00001E0002000900098012843D123480068D2
:1005F00040F01000214908600846006820F0030020
:1006000008600846006840F0020008601A48406828
:10061000194948600846406848600846406840F408
:10062000806048600846406820F47C1048600846B6
:10063000406840F4E81048600846006840F0807068
:10064000086000BF0C48006800F000700028F9D076
:100650000948406820F003000749486008464068A0
:1006600040F00200486000BF0348406800F00C0002
:100670000828F9D10CBD0000001002400020024003
:1006800010B5FFF76DFF2848007800F0800020B912
:1006900026480078401C2549087024480078042822
:1006A0000EDB2148007800201F49087000F0FEFD95
:1006B00000201E490870012251031D48FFF77DFEEE
:1006C0001948007820F08000174908700846007823
:1006D00000F0400020B30846007800F0200000B38E
:1006E0001448406838B113484068401E11494860BA
:1006F0000868804717E00F48C06838B10D48C068E7
:10070000401E0C49C860886880470CE000F0CEFDB0
:100710000548007820F020000349087000F0A8FD8B
:1007200001E000F031FD10BD0100002002000020BA
:10073000001001404400002010B51348006840F04C
:1007400001001149086008464068104908400E49F8
:100750004860084600680E4908400B490860084692
:10076000006820F4802008600846406820F4FE00FD
:1007700048604FF41F008860FFF70EFF4FF00060E5
:100780000449086010BD0000001002400000FFF89E
:10079000FFFFF6FE08ED00E000B587B004A800F00A
:1007A000CDF941F61F40ADF810003F20ADF8140020
:1007B0000020ADF8120004A9104800F06DF9684659
:1007C00000F056F96020ADF800000120ADF80200FD
:1007D00069460A4800F020F86946084800F068F8C1
:1007E0006946064800F0B6F86946044800F002F988
:1007F0000121024800F004F807B000BD00080040E5
:1008000021B1028842F00102028004E002884FF622
:10081000FE731A400280704770B500240022002346
:10082000058C4FF6FE7635400584028C8388048B58
:100830004FF68F752C40B51E2C400D882C43751E2D
:100840002A400D892A434D882A43144DA8420BD0D3
:10085000134DA84208D0134DA84205D0124DA8420E
:1008600002D0124DA84213D14FF6F7752A404D8998
:100870002A434FF6FB752A408D882A434FF6FF65C1
:100880002B404FF6FF552B408D892B43CD892B43B1
:1008900083800483CD888586028470BD002C01404E
:1008A0000034014000400140004401400048014044
:1008B00070B5002400220023058C4FF6EF763540FA
:1008C0000584028C8388048B48F6FF752C404FF614
:1008D000FF452C400D884FF6FF7606EA05252C4390
:1008E0004FF6DF752A400D8906EA05152A434D8823
:1008F00006EA05152A43154DA84202D0144DA84218
:100900001DD14FF67F752A404D894FF6FF7606EAD6
:1009100005152A434FF6BF752A408D8806EA05154E
:100920002A434FF6FF352B404FF2FF752B408D8940
:1009300006EA85052B43CD8906EA85052B4383808E
:100940000483CD880587028470BD0000002C01401F
:100950000034014070B5002400220023058C4FF6BE
:10096000FF6635400584028C8388848B4FF68F7533
:100970002C404FF6FC752C400D882C434FF6FF554C
:100980002A400D894FF6FF7606EA05252A434D8851
:1009900006EA05252A43154DA84202D0144DA84267
:1009A0001DD14FF2FF752A404D894FF6FF7606EABA
:1009B00005252A434FF6FF352A408D8806EA05258E
:1009C0002A434EF6FF752B404DF6FF752B408D895F
:1009D00006EA05152B43CD8906EA05152B438380CE
:1009E0008483CD888587028470BD0000002C01407F
:1009F0000034014070B5002200230024058C4EF61F
:100A0000FF7635400584038C8488828B48F6FF7519
:100A10002A404FF6FF452A400D884FF6FF7606EA3A
:100A200005252A434DF6FF752B400D8906EA05354D
:100A30002B434D8806EA05352B430B4DA84202D0C7
:100A40000A4DA84208D14BF6FF752C408D894FF610
:100A5000FF7606EA85152C4384808283CD88A0F832
:100A60004050038470BD0000002C01400034014060
:100A70000021018041808180C1800181418181818B
:100A8000C1817047818670470187704781877047B1
:100A9000A0F8401070470000002202881D4B9842C9
:100AA0000ED01D4B98420BD0B0F1804F08D01B4B9D
:100AB000984205D01A4B984202D01A4B984204D162
:100AC0004FF68F731A404B881A43174B984207D042
:100AD000164B984204D04FF6FF431A40CB881A4376
:100AE00002808B8883850B8803850A4B98420BD044
:100AF000094B984208D00E4B984205D00D4B9842B6
:100B000002D00D4B984201D10B7A038601238382D8
:100B100070470000002C01400034014000040040F8
:100B200000080040000C004000100040001400408D
:100B30000040014000440140004801404FF6FF7171
:100B4000818000210180C1804180017270470000D6
:100B500070B504460D460BE014F8011B074800F081
:100B600058F900BF4021054800F0A0F80028F9D04E
:100B7000281EA5F10105EFD170BD0000003801402D
:100B800010B52148008800F0200000283AD01E4807
:100B900000F03AF91D490870084600788F2810D1F6
:100BA0001B480078401C1A4908701A4800F044F9A4
:100BB0000020194908701948007820F001001749F1
:100BC00008701648007800F0010070B112480078F3
:100BD00005280ADA0D4800780E490F4A1278885421
:100BE0000D480078401C0C4908700848007881289E
:100BF00008D10A48007840F0010008490870002038
:100C00000549087010BD00000038014006000020B2
:100C10000000002008000020070000201200002033
:100C200021B1828942F40052828104E082894DF62A
:100C3000FF731A40828170471FB54FF496400090B1
:100C40000020ADF80400ADF80600ADF80800ADF8DE
:100C50000C000C20ADF80A006946044800F058F872
:100C600001210248FFF7DCFF1FBD000000380140F2
:100C700008B54FF40070ADF8000018208DF803009F
:100C800003208DF8020069460748FFF709FB4FF47F
:100C90008060ADF8000004208DF80300694602482A
:100CA000FFF7FEFA08BD00000008014002460020E0
:100CB000B1F5007F00D100BF13880B400BB10120BC
:100CC00000E000207047F0B5034600240026002510
:100CD000002040F66A17B94200D100BF1846C1F3A0
:100CE000421401F01F06012707FA06F5012C01D175
:100CF0000C3004E0022C01D1103000E014301AB1A5
:100D000007682F43076002E00768AF430760F0BD44
:100D10002DE9F04786B005460E460024A24600BFE6
:100D2000A1460027B08900B100BF2F462C8A4CF69F
:100D3000FF700440F08804432C82AC894EF6F31017
:100D40000440B08831890843718908430443AC8169
:100D5000AC8A4FF6FF400440B0890443AC8201A83E
:100D6000FFF794FB1F48874202D1DDF810A001E095
:100D7000DDF80CA0A88900F4004040B10AEBCA00DD
:100D800000EB0A1031684900B0FBF1F807E00AEB0C
:100D9000CA0000EB0A1031688900B0FBF1F864204A
:100DA000B8FBF0F004012009642101FB1089A88937
:100DB00000F4004040B1322000EBC900B0FBF1F07C
:100DC00000F00700044308E0322000EB0910642122
:100DD000B0FBF1F000F00F0004432C8106B0BDE839
:100DE000F08700000038014008B525208DF800008C
:100DF00000208DF801008DF8020001208DF803001D
:100E00006846FFF7DFFA08BD01468888C0F308008E
:100E10007047C1F3080282807047000010B50020BF
:100E2000034908700349087000F03CF910BD000048
:100E3000140000201300002070B50446607821786B
:100E400040EA01255548007840F080005349087079
:100E5000002053490870284644F64B72A91A95425F
:100E600071D00FDCA0F58440A0F14B0088B3A0F254
:100E7000074078B3A0F2F450002848D0B0F5887F3E
:100E800026D10BE0A1F20720002866D0B0F5817FC3
:100E90004BD0A0F2022000287ED155E03F480078D8
:100EA00000F04000A0B93D48007800F0F0003B4958
:100EB00008700846007840F010000870A07840B232
:100EC00038490870E07840B23749087000F0EAF815
:100ED00062E00EE0FFE73148007800F0F0002F49B3
:100EE00008700846007840F00100087000F080F8B3
:100EF00052E02A48007800F0F000284908700846BF
:100F0000007840F002000870FFF788FF44E02348B3
:100F1000007800F0F000214908700846007840F0A1
:100F20000400087000F072F836E01C48007800F009
:100F3000F0001A4908700846007840F00800087070
:100F400000F014F928E026E01448007800F0F000E2
:100F50001249087000F0AAF91EE01048007800F06D
:100F6000400058B10D48007820F040000B4908704F
:100F7000012251030D48FFF720FA0BE007480078E3
:100F800040F040000549087000224FF40051074826
:100F9000FFF713FA00E000BF00BF70BD01000020A2
:100FA0000200002013000020140000200010014067
:100FB0000D4909680D4AB1FBF2F1491E120611856F
:100FC00090851146898A41F0010191821146098874
:100FD00041F00901118000BF4FF08041098801F004
:100FE00001010029F8D170473000002040420F0075
:100FF00010B57F20034908700349087000F052F8CB
:1010000010BD0000140000201300002010B50020C7
:10101000034908707F200349087000F043F810BDB1
:101020001300002014000020FFF724FAFFF70AF94C
:10103000FFF7DAFEFFF71CFEFFF7FEFD012240F28C
:1010400025511548FFF73FFEFFF7A6FB6FF07F41E4
:10105000481EB0F1807F00D31BE0481E4FF0E02215
:10106000506150170F22002807DA13071D0E0B4B93
:1010700000F00F04241F1D5503E013071C0E084B3E
:101080001C5400BF00204FF0E02290610720106147
:1010900000BF00BFFEE700000038014018ED00E08F
:1010A00000E400E010B52E4890F900003E2811DB66
:1010B0002B4890F900007F280CDC294890F90000AB
:1010C0003E3881B22748FFF7DFFC00212548FFF7B3
:1010D000D9FC16E0224890F90000002811DB2048D6
:1010E00090F900003E280CDA00211E48FFF7CCFCE6
:1010F0001B4890F900003E38404281B21948FFF782
:10110000C1FC194890F900003E2811DB164890F9FF
:1011100000007F280CDC144890F900003E3881B2B2
:101120001048FFF7B5FC00210E48FFF7AFFC16E0B2
:101130000D4890F90000002811DB0B4890F90000E1
:101140003E280CDA00210748FFF7A2FC064890F978
:1011500000003E38404281B20248FFF797FC10BDC4
:1011600013000020000800401400002010B57F206C
:1011700003490870002003490870FFF793FF10BD72
:10118000130000201400002070B500250026032461
:1011900010203049C8703048FFF782F82D48018888
:1011A0002D48FFF708F91420FFF702FF0420294912
:1011B000C8702948FFF774F822E027480830006813
:1011C00000F0400038B1FF2D02D104F0020404E029
:1011D000681CC5B201E004F002041F480830006832
:1011E00000F0800038B1FF2E02D104F0010404E0C9
:1011F000701CC6B201E004F001040520FFF7D8FE20
:10120000002CDADCFF2E01DA012000E00020FF2DA7
:1012100001DA012100E000210843D0B100F046F8D6
:101220000E48007840F020000C4908700C480D4929
:1012300008600A204860AE4205DD0B488860052141
:101240000848C16005E0094806498860052105484D
:10125000C16070BD160000200008014001000020A0
:101260001D0E0008440000206D1100080D1000083C
:1012700010B50D48007800F00F04012C06D0022CA8
:1012800007D0042C08D0082C0CD108E0FFF7B0FEE2
:1012900008E0FFF7C3FD05E0FFF7B8FE02E0FFF747
:1012A00065FF00BF00BF10BD0100002010B53E204B
:1012B0000349087003490870FFF7F4FE10BD0000F1
:1012C0001400002013000020E81200080000002095
:1012D00044000000280100082C13000844000020EE
:1012E0007C0600004401000800000000FFFF000031
:1012F00000000000000000000000000000000000EE
:1013000000000000000001020304010203040607BC
:10131000080902040608000000A24A0400000000B8
:0C13200000000000010203040607080999
:040000050800018965
:00000001FF
